{
  "contractName": "Faucet",
  "abi": [
    {
      "constant": true,
      "inputs": [],
      "name": "counter",
      "outputs": [
        {
          "internalType": "int256",
          "name": "",
          "type": "int256"
        }
      ],
      "payable": false,
      "stateMutability": "view",
      "type": "function"
    },
    {
      "constant": true,
      "inputs": [],
      "name": "funds",
      "outputs": [
        {
          "internalType": "uint256",
          "name": "",
          "type": "uint256"
        }
      ],
      "payable": false,
      "stateMutability": "view",
      "type": "function"
    }
  ],
  "bytecode": "0x60806040526103e8600055600919600155348015601b57600080fd5b5060968061002a6000396000f3fe6080604052348015600f57600080fd5b506004361060325760003560e01c806361bc221a146037578063c89f2ce414604f575b600080fd5b603d6055565b60408051918252519081900360200190f35b603d605b565b60015481565b6000548156fea265627a7a72315820b34ac38f1b28efc90e4148d2328926306dfe97adec8fef5a4798c042603f91c264736f6c63430005100032",
  "source": "//SPDX-License-Identifier: MIT\r\npragma solidity >=0.4.22 <0.9.0;\r\n\r\n\r\ncontract Faucet {\r\n    uint public funds = 1000;\r\n    int public counter = -10;\r\n    \r\n\t\t\r\n}\r\n",
  "sourcePath": "C:\\Users\\ореукпло\\Documents\\blockchain\\contracts\\FaucetContract.sol",
  "compiler": {
    "name": "solc",
    "version": "0.5.16+commit.9c3226ce.Emscripten.clang"
  },
  "schemaVersion": "3.4.7",
  "updatedAt": "2022-06-23T17:05:52.366Z",
  "networkType": "ethereum",
  "devdoc": {
    "methods": {}
  },
  "userdoc": {
    "methods": {}
  }
}