{
  "contractName": "SimpleToken",
  "abi": [
    {
      "constant": true,
      "inputs": [
        {
          "internalType": "address",
          "name": "",
          "type": "address"
        }
      ],
      "name": "accounts",
      "outputs": [
        {
          "internalType": "uint256",
          "name": "",
          "type": "uint256"
        }
      ],
      "payable": false,
      "stateMutability": "view",
      "type": "function"
    },
    {
      "constant": false,
      "inputs": [],
      "name": "getValue",
      "outputs": [],
      "payable": true,
      "stateMutability": "payable",
      "type": "function"
    },
    {
      "constant": false,
      "inputs": [
        {
          "internalType": "address",
          "name": "to",
          "type": "address"
        },
        {
          "internalType": "uint256",
          "name": "value",
          "type": "uint256"
        }
      ],
      "name": "transfer",
      "outputs": [],
      "payable": false,
      "stateMutability": "nonpayable",
      "type": "function"
    },
    {
      "constant": true,
      "inputs": [],
      "name": "getBalance",
      "outputs": [
        {
          "internalType": "uint256",
          "name": "",
          "type": "uint256"
        }
      ],
      "payable": false,
      "stateMutability": "view",
      "type": "function"
    }
  ],
  "bytecode": "0x608060405234801561001057600080fd5b506101b9806100206000396000f3fe60806040526004361061003f5760003560e01c806312065fe014610044578063209652551461006b5780635e5c06e214610075578063a9059cbb146100a8575b600080fd5b34801561005057600080fd5b506100596100e1565b60408051918252519081900360200190f35b6100736100e6565b005b34801561008157600080fd5b506100596004803603602081101561009857600080fd5b50356001600160a01b03166100fd565b3480156100b457600080fd5b50610073600480360360408110156100cb57600080fd5b506001600160a01b03813516906020013561010f565b333190565b336000908152600160205260409020805434019055565b60016020526000908152604090205481565b3360009081526001602052604090205481111561012b57600080fd5b6001600160a01b038216600090815260016020526040902054818101101561015257600080fd5b33600090815260016020526040808220805484900390556001600160a01b03939093168152919091208054909101905556fea265627a7a723158204b8ff156bf42d83f56114227637ac42b17e4c868f082bb26f273ebe2e827eabc64736f6c63430005100032",
  "source": "//SPDX-License-Identifier: MIT\r\npragma solidity >=0.4.22 <0.9.0;\r\ncontract SimpleToken {\r\n  address owner;\r\n  mapping (address => uint) public accounts;\r\n\r\n  function getValue() external payable{\r\n    accounts[msg.sender]+=msg.value;\r\n  }\r\n  function transfer(address to, uint256 value) public {\r\n     require(accounts[msg.sender] >= value);\r\n     require(accounts[to] + value >= accounts[to]);\r\n     accounts[msg.sender] -= value;\r\n     accounts[to] += value; \r\n  }\r\n   function getBalance(\r\n    ) public view returns(uint256){\r\n        return msg.sender.balance;\r\n    }\r\n}",
  "sourcePath": "C:\\Users\\ореукпло\\Documents\\blockchain\\contracts\\SimpleContract.sol",
  "compiler": {
    "name": "solc",
    "version": "0.5.16+commit.9c3226ce.Emscripten.clang"
  },
  "schemaVersion": "3.4.7",
  "updatedAt": "2022-06-23T17:34:19.512Z",
  "devdoc": {
    "methods": {}
  },
  "userdoc": {
    "methods": {}
  }
}